{
  "_format": "hh-sol-artifact-1",
  "contractName": "StarNotary",
  "sourceName": "contracts/StarNotary_project_version.sol",
  "abi": [
    {
      "inputs": [],
      "stateMutability": "nonpayable",
      "type": "constructor"
    },
    {
      "anonymous": false,
      "inputs": [
        {
          "indexed": true,
          "internalType": "address",
          "name": "owner",
          "type": "address"
        },
        {
          "indexed": true,
          "internalType": "address",
          "name": "approved",
          "type": "address"
        },
        {
          "indexed": true,
          "internalType": "uint256",
          "name": "tokenId",
          "type": "uint256"
        }
      ],
      "name": "Approval",
      "type": "event"
    },
    {
      "anonymous": false,
      "inputs": [
        {
          "indexed": true,
          "internalType": "address",
          "name": "owner",
          "type": "address"
        },
        {
          "indexed": true,
          "internalType": "address",
          "name": "operator",
          "type": "address"
        },
        {
          "indexed": false,
          "internalType": "bool",
          "name": "approved",
          "type": "bool"
        }
      ],
      "name": "ApprovalForAll",
      "type": "event"
    },
    {
      "anonymous": false,
      "inputs": [
        {
          "indexed": true,
          "internalType": "address",
          "name": "from",
          "type": "address"
        },
        {
          "indexed": true,
          "internalType": "address",
          "name": "to",
          "type": "address"
        },
        {
          "indexed": true,
          "internalType": "uint256",
          "name": "tokenId",
          "type": "uint256"
        }
      ],
      "name": "Transfer",
      "type": "event"
    },
    {
      "inputs": [
        {
          "internalType": "address",
          "name": "to",
          "type": "address"
        },
        {
          "internalType": "uint256",
          "name": "tokenId",
          "type": "uint256"
        }
      ],
      "name": "approve",
      "outputs": [],
      "stateMutability": "nonpayable",
      "type": "function"
    },
    {
      "inputs": [
        {
          "internalType": "address",
          "name": "owner",
          "type": "address"
        }
      ],
      "name": "balanceOf",
      "outputs": [
        {
          "internalType": "uint256",
          "name": "",
          "type": "uint256"
        }
      ],
      "stateMutability": "view",
      "type": "function"
    },
    {
      "inputs": [
        {
          "internalType": "uint256",
          "name": "_tokenId",
          "type": "uint256"
        }
      ],
      "name": "buyStar",
      "outputs": [],
      "stateMutability": "payable",
      "type": "function"
    },
    {
      "inputs": [
        {
          "internalType": "string",
          "name": "_name",
          "type": "string"
        },
        {
          "internalType": "uint256",
          "name": "_tokenId",
          "type": "uint256"
        }
      ],
      "name": "createStar",
      "outputs": [],
      "stateMutability": "nonpayable",
      "type": "function"
    },
    {
      "inputs": [
        {
          "internalType": "uint256",
          "name": "_tokenId1",
          "type": "uint256"
        },
        {
          "internalType": "uint256",
          "name": "_tokenId2",
          "type": "uint256"
        }
      ],
      "name": "exchangeStars",
      "outputs": [],
      "stateMutability": "nonpayable",
      "type": "function"
    },
    {
      "inputs": [
        {
          "internalType": "uint256",
          "name": "tokenId",
          "type": "uint256"
        }
      ],
      "name": "getApproved",
      "outputs": [
        {
          "internalType": "address",
          "name": "",
          "type": "address"
        }
      ],
      "stateMutability": "view",
      "type": "function"
    },
    {
      "inputs": [
        {
          "internalType": "address",
          "name": "owner",
          "type": "address"
        },
        {
          "internalType": "address",
          "name": "operator",
          "type": "address"
        }
      ],
      "name": "isApprovedForAll",
      "outputs": [
        {
          "internalType": "bool",
          "name": "",
          "type": "bool"
        }
      ],
      "stateMutability": "view",
      "type": "function"
    },
    {
      "inputs": [
        {
          "internalType": "uint256",
          "name": "_tokenId",
          "type": "uint256"
        }
      ],
      "name": "lookUptokenIdToStarInfo",
      "outputs": [
        {
          "internalType": "string",
          "name": "",
          "type": "string"
        }
      ],
      "stateMutability": "view",
      "type": "function"
    },
    {
      "inputs": [],
      "name": "name",
      "outputs": [
        {
          "internalType": "string",
          "name": "",
          "type": "string"
        }
      ],
      "stateMutability": "view",
      "type": "function"
    },
    {
      "inputs": [],
      "name": "owner",
      "outputs": [
        {
          "internalType": "address",
          "name": "",
          "type": "address"
        }
      ],
      "stateMutability": "view",
      "type": "function"
    },
    {
      "inputs": [
        {
          "internalType": "uint256",
          "name": "tokenId",
          "type": "uint256"
        }
      ],
      "name": "ownerOf",
      "outputs": [
        {
          "internalType": "address",
          "name": "",
          "type": "address"
        }
      ],
      "stateMutability": "view",
      "type": "function"
    },
    {
      "inputs": [
        {
          "internalType": "uint256",
          "name": "_tokenId",
          "type": "uint256"
        },
        {
          "internalType": "uint256",
          "name": "_price",
          "type": "uint256"
        }
      ],
      "name": "putStarUpForSale",
      "outputs": [],
      "stateMutability": "nonpayable",
      "type": "function"
    },
    {
      "inputs": [
        {
          "internalType": "address",
          "name": "from",
          "type": "address"
        },
        {
          "internalType": "address",
          "name": "to",
          "type": "address"
        },
        {
          "internalType": "uint256",
          "name": "tokenId",
          "type": "uint256"
        }
      ],
      "name": "safeTransferFrom",
      "outputs": [],
      "stateMutability": "nonpayable",
      "type": "function"
    },
    {
      "inputs": [
        {
          "internalType": "address",
          "name": "from",
          "type": "address"
        },
        {
          "internalType": "address",
          "name": "to",
          "type": "address"
        },
        {
          "internalType": "uint256",
          "name": "tokenId",
          "type": "uint256"
        },
        {
          "internalType": "bytes",
          "name": "_data",
          "type": "bytes"
        }
      ],
      "name": "safeTransferFrom",
      "outputs": [],
      "stateMutability": "nonpayable",
      "type": "function"
    },
    {
      "inputs": [
        {
          "internalType": "address",
          "name": "operator",
          "type": "address"
        },
        {
          "internalType": "bool",
          "name": "approved",
          "type": "bool"
        }
      ],
      "name": "setApprovalForAll",
      "outputs": [],
      "stateMutability": "nonpayable",
      "type": "function"
    },
    {
      "inputs": [
        {
          "internalType": "uint256",
          "name": "",
          "type": "uint256"
        }
      ],
      "name": "starsForSale",
      "outputs": [
        {
          "internalType": "uint256",
          "name": "",
          "type": "uint256"
        }
      ],
      "stateMutability": "view",
      "type": "function"
    },
    {
      "inputs": [
        {
          "internalType": "bytes4",
          "name": "interfaceId",
          "type": "bytes4"
        }
      ],
      "name": "supportsInterface",
      "outputs": [
        {
          "internalType": "bool",
          "name": "",
          "type": "bool"
        }
      ],
      "stateMutability": "view",
      "type": "function"
    },
    {
      "inputs": [],
      "name": "symbol",
      "outputs": [
        {
          "internalType": "string",
          "name": "",
          "type": "string"
        }
      ],
      "stateMutability": "view",
      "type": "function"
    },
    {
      "inputs": [
        {
          "internalType": "uint256",
          "name": "",
          "type": "uint256"
        }
      ],
      "name": "tokenIdToStarInfo",
      "outputs": [
        {
          "internalType": "string",
          "name": "name",
          "type": "string"
        }
      ],
      "stateMutability": "view",
      "type": "function"
    },
    {
      "inputs": [
        {
          "internalType": "uint256",
          "name": "tokenId",
          "type": "uint256"
        }
      ],
      "name": "tokenURI",
      "outputs": [
        {
          "internalType": "string",
          "name": "",
          "type": "string"
        }
      ],
      "stateMutability": "view",
      "type": "function"
    },
    {
      "inputs": [
        {
          "internalType": "address",
          "name": "from",
          "type": "address"
        },
        {
          "internalType": "address",
          "name": "to",
          "type": "address"
        },
        {
          "internalType": "uint256",
          "name": "tokenId",
          "type": "uint256"
        }
      ],
      "name": "transferFrom",
      "outputs": [],
      "stateMutability": "nonpayable",
      "type": "function"
    },
    {
      "inputs": [
        {
          "internalType": "address",
          "name": "_to1",
          "type": "address"
        },
        {
          "internalType": "uint256",
          "name": "_tokenId",
          "type": "uint256"
        }
      ],
      "name": "transferStar",
      "outputs": [],
      "stateMutability": "nonpayable",
      "type": "function"
    }
  ],
  "bytecode": "0x60806040523480156200001157600080fd5b506040518060400160405280600981526020017f4e6f7474797374617200000000000000000000000000000000000000000000008152506040518060400160405280600281526020017f4e53000000000000000000000000000000000000000000000000000000000000815250816000908051906020019062000096929190620000f9565b508060019080519060200190620000af929190620000f9565b50505033600860006101000a81548173ffffffffffffffffffffffffffffffffffffffff021916908373ffffffffffffffffffffffffffffffffffffffff1602179055506200020e565b8280546200010790620001a9565b90600052602060002090601f0160209004810192826200012b576000855562000177565b82601f106200014657805160ff191683800117855562000177565b8280016001018555821562000177579182015b828111156200017657825182559160200191906001019062000159565b5b5090506200018691906200018a565b5090565b5b80821115620001a55760008160009055506001016200018b565b5090565b60006002820490506001821680620001c257607f821691505b60208210811415620001d957620001d8620001df565b5b50919050565b7f4e487b7100000000000000000000000000000000000000000000000000000000600052602260045260246000fd5b6132a0806200021e6000396000f3fe6080604052600436106101355760003560e01c80636352211e116100ab578063a22cb4651161006f578063a22cb4651461043b578063b88d4fde14610464578063c87b56dd1461048d578063d7830ccb146104ca578063e7152a5c14610507578063e985e9c51461053057610135565b80636352211e1461034257806370a082311461037f5780638da5cb5b146103bc57806395d89b41146103e75780639697c0a11461041257610135565b806315e0afa5116100fd57806315e0afa5146102455780631967fd981461026e57806323b872dd146102ab5780632f1c34ef146102d4578063316a4361146102f057806342842e0e1461031957610135565b806301ffc9a71461013a5780630564b1301461017757806306fdde03146101b4578063081812fc146101df578063095ea7b31461021c575b600080fd5b34801561014657600080fd5b50610161600480360381019061015c919061220b565b61056d565b60405161016e91906126e7565b60405180910390f35b34801561018357600080fd5b5061019e600480360381019061019991906122b1565b61064f565b6040516101ab9190612964565b60405180910390f35b3480156101c057600080fd5b506101c9610667565b6040516101d69190612702565b60405180910390f35b3480156101eb57600080fd5b50610206600480360381019061020191906122b1565b6106f9565b6040516102139190612680565b60405180910390f35b34801561022857600080fd5b50610243600480360381019061023e91906121cf565b61077e565b005b34801561025157600080fd5b5061026c600480360381019061026791906122da565b610896565b005b34801561027a57600080fd5b50610295600480360381019061029091906122b1565b610979565b6040516102a29190612702565b60405180910390f35b3480156102b757600080fd5b506102d260048036038101906102cd91906120c9565b610a1f565b005b6102ee60048036038101906102e991906122b1565b610a7f565b005b3480156102fc57600080fd5b50610317600480360381019061031291906122da565b610bfe565b005b34801561032557600080fd5b50610340600480360381019061033b91906120c9565b610c90565b005b34801561034e57600080fd5b50610369600480360381019061036491906122b1565b610cb0565b6040516103769190612680565b60405180910390f35b34801561038b57600080fd5b506103a660048036038101906103a19190612064565b610d62565b6040516103b39190612964565b60405180910390f35b3480156103c857600080fd5b506103d1610e1a565b6040516103de9190612680565b60405180910390f35b3480156103f357600080fd5b506103fc610e40565b6040516104099190612702565b60405180910390f35b34801561041e57600080fd5b506104396004803603810190610434919061225d565b610ed2565b005b34801561044757600080fd5b50610462600480360381019061045d9190612193565b610f28565b005b34801561047057600080fd5b5061048b60048036038101906104869190612118565b610f3e565b005b34801561049957600080fd5b506104b460048036038101906104af91906122b1565b610fa0565b6040516104c19190612702565b60405180910390f35b3480156104d657600080fd5b506104f160048036038101906104ec91906122b1565b611047565b6040516104fe9190612702565b60405180910390f35b34801561051357600080fd5b5061052e600480360381019061052991906121cf565b6110ef565b005b34801561053c57600080fd5b506105576004803603810190610552919061208d565b611174565b60405161056491906126e7565b60405180910390f35b60007f80ac58cd000000000000000000000000000000000000000000000000000000007bffffffffffffffffffffffffffffffffffffffffffffffffffffffff1916827bffffffffffffffffffffffffffffffffffffffffffffffffffffffff1916148061063857507f5b5e139f000000000000000000000000000000000000000000000000000000007bffffffffffffffffffffffffffffffffffffffffffffffffffffffff1916827bffffffffffffffffffffffffffffffffffffffffffffffffffffffff1916145b80610648575061064782611208565b5b9050919050565b60076020528060005260406000206000915090505481565b60606000805461067690612bba565b80601f01602080910402602001604051908101604052809291908181526020018280546106a290612bba565b80156106ef5780601f106106c4576101008083540402835291602001916106ef565b820191906000526020600020905b8154815290600101906020018083116106d257829003601f168201915b5050505050905090565b600061070482611272565b610743576040517f08c379a000000000000000000000000000000000000000000000000000000000815260040161073a906128a4565b60405180910390fd5b6004600083815260200190815260200160002060009054906101000a900473ffffffffffffffffffffffffffffffffffffffff169050919050565b600061078982610cb0565b90508073ffffffffffffffffffffffffffffffffffffffff168373ffffffffffffffffffffffffffffffffffffffff1614156107fa576040517f08c379a00000000000000000000000000000000000000000000000000000000081526004016107f190612904565b60405180910390fd5b8073ffffffffffffffffffffffffffffffffffffffff166108196112de565b73ffffffffffffffffffffffffffffffffffffffff1614806108485750610847816108426112de565b611174565b5b610887576040517f08c379a000000000000000000000000000000000000000000000000000000000815260040161087e90612824565b60405180910390fd5b61089183836112e6565b505050565b3373ffffffffffffffffffffffffffffffffffffffff166108b683610cb0565b73ffffffffffffffffffffffffffffffffffffffff161415610907576108dc33826112e6565b6108ef336108e983610cb0565b84610a1f565b6109026108fb82610cb0565b3383610a1f565b610975565b3373ffffffffffffffffffffffffffffffffffffffff1661092782610cb0565b73ffffffffffffffffffffffffffffffffffffffff1614156109745761094d33836112e6565b6109603361095a84610cb0565b83610a1f565b61097361096c83610cb0565b3384610a1f565b5b5b5050565b600660205280600052604060002060009150905080600001805461099c90612bba565b80601f01602080910402602001604051908101604052809291908181526020018280546109c890612bba565b8015610a155780601f106109ea57610100808354040283529160200191610a15565b820191906000526020600020905b8154815290600101906020018083116109f857829003601f168201915b5050505050905081565b610a30610a2a6112de565b8261139f565b610a6f576040517f08c379a0000000000000000000000000000000000000000000000000000000008152600401610a6690612944565b60405180910390fd5b610a7a83838361147d565b505050565b6000600760008381526020019081526020016000205411610ad5576040517f08c379a0000000000000000000000000000000000000000000000000000000008152600401610acc90612924565b60405180910390fd5b6000600760008381526020019081526020016000205490506000610af883610cb0565b9050813411610b3c576040517f08c379a0000000000000000000000000000000000000000000000000000000008152600401610b33906128e4565b60405180910390fd5b610b4633846112e6565b610b51813385610a1f565b60008190508073ffffffffffffffffffffffffffffffffffffffff166108fc849081150290604051600060405180830381858888f19350505050158015610b9c573d6000803e3d6000fd5b5082341115610bf8573373ffffffffffffffffffffffffffffffffffffffff166108fc8434610bcb9190612ad0565b9081150290604051600060405180830381858888f19350505050158015610bf6573d6000803e3d6000fd5b505b50505050565b3373ffffffffffffffffffffffffffffffffffffffff16610c1e83610cb0565b73ffffffffffffffffffffffffffffffffffffffff1614610c74576040517f08c379a0000000000000000000000000000000000000000000000000000000008152600401610c6b90612724565b60405180910390fd5b8060076000848152602001908152602001600020819055505050565b610cab83838360405180602001604052806000815250610f3e565b505050565b6000806002600084815260200190815260200160002060009054906101000a900473ffffffffffffffffffffffffffffffffffffffff169050600073ffffffffffffffffffffffffffffffffffffffff168173ffffffffffffffffffffffffffffffffffffffff161415610d59576040517f08c379a0000000000000000000000000000000000000000000000000000000008152600401610d5090612864565b60405180910390fd5b80915050919050565b60008073ffffffffffffffffffffffffffffffffffffffff168273ffffffffffffffffffffffffffffffffffffffff161415610dd3576040517f08c379a0000000000000000000000000000000000000000000000000000000008152600401610dca90612844565b60405180910390fd5b600360008373ffffffffffffffffffffffffffffffffffffffff1673ffffffffffffffffffffffffffffffffffffffff168152602001908152602001600020549050919050565b600860009054906101000a900473ffffffffffffffffffffffffffffffffffffffff1681565b606060018054610e4f90612bba565b80601f0160208091040260200160405190810160405280929190818152602001828054610e7b90612bba565b8015610ec85780601f10610e9d57610100808354040283529160200191610ec8565b820191906000526020600020905b815481529060010190602001808311610eab57829003601f168201915b5050505050905090565b6000604051806020016040528084815250905080600660008481526020019081526020016000206000820151816000019080519060200190610f15929190611e88565b50905050610f2333836116e4565b505050565b610f3a610f336112de565b8383611702565b5050565b610f4f610f496112de565b8361139f565b610f8e576040517f08c379a0000000000000000000000000000000000000000000000000000000008152600401610f8590612944565b60405180910390fd5b610f9a8484848461186f565b50505050565b6060610fab82611272565b610fea576040517f08c379a0000000000000000000000000000000000000000000000000000000008152600401610fe1906128c4565b60405180910390fd5b6000610ff46118cb565b90506000815111611014576040518060200160405280600081525061103f565b8061101e846118e2565b60405160200161102f92919061265c565b6040516020818303038152906040525b915050919050565b606060066000838152602001908152602001600020600001805461106a90612bba565b80601f016020809104026020016040519081016040528092919081815260200182805461109690612bba565b80156110e35780601f106110b8576101008083540402835291602001916110e3565b820191906000526020600020905b8154815290600101906020018083116110c657829003601f168201915b50505050509050919050565b6110f881610cb0565b73ffffffffffffffffffffffffffffffffffffffff163373ffffffffffffffffffffffffffffffffffffffff1614611165576040517f08c379a000000000000000000000000000000000000000000000000000000000815260040161115c90612744565b60405180910390fd5b611170338383610a1f565b5050565b6000600560008473ffffffffffffffffffffffffffffffffffffffff1673ffffffffffffffffffffffffffffffffffffffff16815260200190815260200160002060008373ffffffffffffffffffffffffffffffffffffffff1673ffffffffffffffffffffffffffffffffffffffff16815260200190815260200160002060009054906101000a900460ff16905092915050565b60007f01ffc9a7000000000000000000000000000000000000000000000000000000007bffffffffffffffffffffffffffffffffffffffffffffffffffffffff1916827bffffffffffffffffffffffffffffffffffffffffffffffffffffffff1916149050919050565b60008073ffffffffffffffffffffffffffffffffffffffff166002600084815260200190815260200160002060009054906101000a900473ffffffffffffffffffffffffffffffffffffffff1673ffffffffffffffffffffffffffffffffffffffff1614159050919050565b600033905090565b816004600083815260200190815260200160002060006101000a81548173ffffffffffffffffffffffffffffffffffffffff021916908373ffffffffffffffffffffffffffffffffffffffff160217905550808273ffffffffffffffffffffffffffffffffffffffff1661135983610cb0565b73ffffffffffffffffffffffffffffffffffffffff167f8c5be1e5ebec7d5bd14f71427d1e84f3dd0314c0f7b2291e5b200ac8c7c3b92560405160405180910390a45050565b60006113aa82611272565b6113e9576040517f08c379a00000000000000000000000000000000000000000000000000000000081526004016113e090612804565b60405180910390fd5b60006113f483610cb0565b90508073ffffffffffffffffffffffffffffffffffffffff168473ffffffffffffffffffffffffffffffffffffffff16148061146357508373ffffffffffffffffffffffffffffffffffffffff1661144b846106f9565b73ffffffffffffffffffffffffffffffffffffffff16145b8061147457506114738185611174565b5b91505092915050565b8273ffffffffffffffffffffffffffffffffffffffff1661149d82610cb0565b73ffffffffffffffffffffffffffffffffffffffff16146114f3576040517f08c379a00000000000000000000000000000000000000000000000000000000081526004016114ea90612784565b60405180910390fd5b600073ffffffffffffffffffffffffffffffffffffffff168273ffffffffffffffffffffffffffffffffffffffff161415611563576040517f08c379a000000000000000000000000000000000000000000000000000000000815260040161155a906127c4565b60405180910390fd5b61156e838383611a8f565b6115796000826112e6565b6001600360008573ffffffffffffffffffffffffffffffffffffffff1673ffffffffffffffffffffffffffffffffffffffff16815260200190815260200160002060008282546115c99190612ad0565b925050819055506001600360008473ffffffffffffffffffffffffffffffffffffffff1673ffffffffffffffffffffffffffffffffffffffff16815260200190815260200160002060008282546116209190612a49565b92505081905550816002600083815260200190815260200160002060006101000a81548173ffffffffffffffffffffffffffffffffffffffff021916908373ffffffffffffffffffffffffffffffffffffffff160217905550808273ffffffffffffffffffffffffffffffffffffffff168473ffffffffffffffffffffffffffffffffffffffff167fddf252ad1be2c89b69c2b068fc378daa952ba7f163c4a11628f55a4df523b3ef60405160405180910390a46116df838383611a94565b505050565b6116fe828260405180602001604052806000815250611a99565b5050565b8173ffffffffffffffffffffffffffffffffffffffff168373ffffffffffffffffffffffffffffffffffffffff161415611771576040517f08c379a0000000000000000000000000000000000000000000000000000000008152600401611768906127e4565b60405180910390fd5b80600560008573ffffffffffffffffffffffffffffffffffffffff1673ffffffffffffffffffffffffffffffffffffffff16815260200190815260200160002060008473ffffffffffffffffffffffffffffffffffffffff1673ffffffffffffffffffffffffffffffffffffffff16815260200190815260200160002060006101000a81548160ff0219169083151502179055508173ffffffffffffffffffffffffffffffffffffffff168373ffffffffffffffffffffffffffffffffffffffff167f17307eab39ab6107e8899845ad3d59bd9653f200f220920489ca2b5937696c318360405161186291906126e7565b60405180910390a3505050565b61187a84848461147d565b61188684848484611af4565b6118c5576040517f08c379a00000000000000000000000000000000000000000000000000000000081526004016118bc90612764565b60405180910390fd5b50505050565b606060405180602001604052806000815250905090565b6060600082141561192a576040518060400160405280600181526020017f30000000000000000000000000000000000000000000000000000000000000008152509050611a8a565b600082905060005b6000821461195c57808061194590612c1d565b915050600a826119559190612a9f565b9150611932565b60008167ffffffffffffffff81111561199e577f4e487b7100000000000000000000000000000000000000000000000000000000600052604160045260246000fd5b6040519080825280601f01601f1916602001820160405280156119d05781602001600182028036833780820191505090505b5090505b60008514611a83576001826119e99190612ad0565b9150600a856119f89190612c66565b6030611a049190612a49565b60f81b818381518110611a40577f4e487b7100000000000000000000000000000000000000000000000000000000600052603260045260246000fd5b60200101907effffffffffffffffffffffffffffffffffffffffffffffffffffffffffffff1916908160001a905350600a85611a7c9190612a9f565b94506119d4565b8093505050505b919050565b505050565b505050565b611aa38383611c8b565b611ab06000848484611af4565b611aef576040517f08c379a0000000000000000000000000000000000000000000000000000000008152600401611ae690612764565b60405180910390fd5b505050565b6000611b158473ffffffffffffffffffffffffffffffffffffffff16611e65565b15611c7e578373ffffffffffffffffffffffffffffffffffffffff1663150b7a02611b3e6112de565b8786866040518563ffffffff1660e01b8152600401611b60949392919061269b565b602060405180830381600087803b158015611b7a57600080fd5b505af1925050508015611bab57506040513d601f19601f82011682018060405250810190611ba89190612234565b60015b611c2e573d8060008114611bdb576040519150601f19603f3d011682016040523d82523d6000602084013e611be0565b606091505b50600081511415611c26576040517f08c379a0000000000000000000000000000000000000000000000000000000008152600401611c1d90612764565b60405180910390fd5b805181602001fd5b63150b7a0260e01b7bffffffffffffffffffffffffffffffffffffffffffffffffffffffff1916817bffffffffffffffffffffffffffffffffffffffffffffffffffffffff191614915050611c83565b600190505b949350505050565b600073ffffffffffffffffffffffffffffffffffffffff168273ffffffffffffffffffffffffffffffffffffffff161415611cfb576040517f08c379a0000000000000000000000000000000000000000000000000000000008152600401611cf290612884565b60405180910390fd5b611d0481611272565b15611d44576040517f08c379a0000000000000000000000000000000000000000000000000000000008152600401611d3b906127a4565b60405180910390fd5b611d5060008383611a8f565b6001600360008473ffffffffffffffffffffffffffffffffffffffff1673ffffffffffffffffffffffffffffffffffffffff1681526020019081526020016000206000828254611da09190612a49565b92505081905550816002600083815260200190815260200160002060006101000a81548173ffffffffffffffffffffffffffffffffffffffff021916908373ffffffffffffffffffffffffffffffffffffffff160217905550808273ffffffffffffffffffffffffffffffffffffffff16600073ffffffffffffffffffffffffffffffffffffffff167fddf252ad1be2c89b69c2b068fc378daa952ba7f163c4a11628f55a4df523b3ef60405160405180910390a4611e6160008383611a94565b5050565b6000808273ffffffffffffffffffffffffffffffffffffffff163b119050919050565b828054611e9490612bba565b90600052602060002090601f016020900481019282611eb65760008555611efd565b82601f10611ecf57805160ff1916838001178555611efd565b82800160010185558215611efd579182015b82811115611efc578251825591602001919060010190611ee1565b5b509050611f0a9190611f0e565b5090565b5b80821115611f27576000816000905550600101611f0f565b5090565b6000611f3e611f39846129a4565b61297f565b905082815260208101848484011115611f5657600080fd5b611f61848285612b78565b509392505050565b6000611f7c611f77846129d5565b61297f565b905082815260208101848484011115611f9457600080fd5b611f9f848285612b78565b509392505050565b600081359050611fb68161320e565b92915050565b600081359050611fcb81613225565b92915050565b600081359050611fe08161323c565b92915050565b600081519050611ff58161323c565b92915050565b600082601f83011261200c57600080fd5b813561201c848260208601611f2b565b91505092915050565b600082601f83011261203657600080fd5b8135612046848260208601611f69565b91505092915050565b60008135905061205e81613253565b92915050565b60006020828403121561207657600080fd5b600061208484828501611fa7565b91505092915050565b600080604083850312156120a057600080fd5b60006120ae85828601611fa7565b92505060206120bf85828601611fa7565b9150509250929050565b6000806000606084860312156120de57600080fd5b60006120ec86828701611fa7565b93505060206120fd86828701611fa7565b925050604061210e8682870161204f565b9150509250925092565b6000806000806080858703121561212e57600080fd5b600061213c87828801611fa7565b945050602061214d87828801611fa7565b935050604061215e8782880161204f565b925050606085013567ffffffffffffffff81111561217b57600080fd5b61218787828801611ffb565b91505092959194509250565b600080604083850312156121a657600080fd5b60006121b485828601611fa7565b92505060206121c585828601611fbc565b9150509250929050565b600080604083850312156121e257600080fd5b60006121f085828601611fa7565b92505060206122018582860161204f565b9150509250929050565b60006020828403121561221d57600080fd5b600061222b84828501611fd1565b91505092915050565b60006020828403121561224657600080fd5b600061225484828501611fe6565b91505092915050565b6000806040838503121561227057600080fd5b600083013567ffffffffffffffff81111561228a57600080fd5b61229685828601612025565b92505060206122a78582860161204f565b9150509250929050565b6000602082840312156122c357600080fd5b60006122d18482850161204f565b91505092915050565b600080604083850312156122ed57600080fd5b60006122fb8582860161204f565b925050602061230c8582860161204f565b9150509250929050565b61231f81612b04565b82525050565b61232e81612b16565b82525050565b600061233f82612a06565b6123498185612a1c565b9350612359818560208601612b87565b61236281612d53565b840191505092915050565b600061237882612a11565b6123828185612a2d565b9350612392818560208601612b87565b61239b81612d53565b840191505092915050565b60006123b182612a11565b6123bb8185612a3e565b93506123cb818560208601612b87565b80840191505092915050565b60006123e4602583612a2d565b91506123ef82612d64565b604082019050919050565b6000612407601783612a2d565b915061241282612db3565b602082019050919050565b600061242a603283612a2d565b915061243582612ddc565b604082019050919050565b600061244d602583612a2d565b915061245882612e2b565b604082019050919050565b6000612470601c83612a2d565b915061247b82612e7a565b602082019050919050565b6000612493602483612a2d565b915061249e82612ea3565b604082019050919050565b60006124b6601983612a2d565b91506124c182612ef2565b602082019050919050565b60006124d9602c83612a2d565b91506124e482612f1b565b604082019050919050565b60006124fc603883612a2d565b915061250782612f6a565b604082019050919050565b600061251f602a83612a2d565b915061252a82612fb9565b604082019050919050565b6000612542602983612a2d565b915061254d82613008565b604082019050919050565b6000612565602083612a2d565b915061257082613057565b602082019050919050565b6000612588602c83612a2d565b915061259382613080565b604082019050919050565b60006125ab602f83612a2d565b91506125b6826130cf565b604082019050919050565b60006125ce601d83612a2d565b91506125d98261311e565b602082019050919050565b60006125f1602183612a2d565b91506125fc82613147565b604082019050919050565b6000612614601e83612a2d565b915061261f82613196565b602082019050919050565b6000612637603183612a2d565b9150612642826131bf565b604082019050919050565b61265681612b6e565b82525050565b600061266882856123a6565b915061267482846123a6565b91508190509392505050565b60006020820190506126956000830184612316565b92915050565b60006080820190506126b06000830187612316565b6126bd6020830186612316565b6126ca604083018561264d565b81810360608301526126dc8184612334565b905095945050505050565b60006020820190506126fc6000830184612325565b92915050565b6000602082019050818103600083015261271c818461236d565b905092915050565b6000602082019050818103600083015261273d816123d7565b9050919050565b6000602082019050818103600083015261275d816123fa565b9050919050565b6000602082019050818103600083015261277d8161241d565b9050919050565b6000602082019050818103600083015261279d81612440565b9050919050565b600060208201905081810360008301526127bd81612463565b9050919050565b600060208201905081810360008301526127dd81612486565b9050919050565b600060208201905081810360008301526127fd816124a9565b9050919050565b6000602082019050818103600083015261281d816124cc565b9050919050565b6000602082019050818103600083015261283d816124ef565b9050919050565b6000602082019050818103600083015261285d81612512565b9050919050565b6000602082019050818103600083015261287d81612535565b9050919050565b6000602082019050818103600083015261289d81612558565b9050919050565b600060208201905081810360008301526128bd8161257b565b9050919050565b600060208201905081810360008301526128dd8161259e565b9050919050565b600060208201905081810360008301526128fd816125c1565b9050919050565b6000602082019050818103600083015261291d816125e4565b9050919050565b6000602082019050818103600083015261293d81612607565b9050919050565b6000602082019050818103600083015261295d8161262a565b9050919050565b6000602082019050612979600083018461264d565b92915050565b600061298961299a565b90506129958282612bec565b919050565b6000604051905090565b600067ffffffffffffffff8211156129bf576129be612d24565b5b6129c882612d53565b9050602081019050919050565b600067ffffffffffffffff8211156129f0576129ef612d24565b5b6129f982612d53565b9050602081019050919050565b600081519050919050565b600081519050919050565b600082825260208201905092915050565b600082825260208201905092915050565b600081905092915050565b6000612a5482612b6e565b9150612a5f83612b6e565b9250827fffffffffffffffffffffffffffffffffffffffffffffffffffffffffffffffff03821115612a9457612a93612c97565b5b828201905092915050565b6000612aaa82612b6e565b9150612ab583612b6e565b925082612ac557612ac4612cc6565b5b828204905092915050565b6000612adb82612b6e565b9150612ae683612b6e565b925082821015612af957612af8612c97565b5b828203905092915050565b6000612b0f82612b4e565b9050919050565b60008115159050919050565b60007fffffffff0000000000000000000000000000000000000000000000000000000082169050919050565b600073ffffffffffffffffffffffffffffffffffffffff82169050919050565b6000819050919050565b82818337600083830152505050565b60005b83811015612ba5578082015181840152602081019050612b8a565b83811115612bb4576000848401525b50505050565b60006002820490506001821680612bd257607f821691505b60208210811415612be657612be5612cf5565b5b50919050565b612bf582612d53565b810181811067ffffffffffffffff82111715612c1457612c13612d24565b5b80604052505050565b6000612c2882612b6e565b91507fffffffffffffffffffffffffffffffffffffffffffffffffffffffffffffffff821415612c5b57612c5a612c97565b5b600182019050919050565b6000612c7182612b6e565b9150612c7c83612b6e565b925082612c8c57612c8b612cc6565b5b828206905092915050565b7f4e487b7100000000000000000000000000000000000000000000000000000000600052601160045260246000fd5b7f4e487b7100000000000000000000000000000000000000000000000000000000600052601260045260246000fd5b7f4e487b7100000000000000000000000000000000000000000000000000000000600052602260045260246000fd5b7f4e487b7100000000000000000000000000000000000000000000000000000000600052604160045260246000fd5b6000601f19601f8301169050919050565b7f596f752063616e27742073656c6c20746865205374617220796f7520646f6e2760008201527f74206f776e000000000000000000000000000000000000000000000000000000602082015250565b7f73656e646572206973206e6f7420746865206f776e6572000000000000000000600082015250565b7f4552433732313a207472616e7366657220746f206e6f6e20455243373231526560008201527f63656976657220696d706c656d656e7465720000000000000000000000000000602082015250565b7f4552433732313a207472616e736665722066726f6d20696e636f72726563742060008201527f6f776e6572000000000000000000000000000000000000000000000000000000602082015250565b7f4552433732313a20746f6b656e20616c7265616479206d696e74656400000000600082015250565b7f4552433732313a207472616e7366657220746f20746865207a65726f2061646460008201527f7265737300000000000000000000000000000000000000000000000000000000602082015250565b7f4552433732313a20617070726f766520746f2063616c6c657200000000000000600082015250565b7f4552433732313a206f70657261746f7220717565727920666f72206e6f6e657860008201527f697374656e7420746f6b656e0000000000000000000000000000000000000000602082015250565b7f4552433732313a20617070726f76652063616c6c6572206973206e6f74206f7760008201527f6e6572206e6f7220617070726f76656420666f7220616c6c0000000000000000602082015250565b7f4552433732313a2062616c616e636520717565727920666f7220746865207a6560008201527f726f206164647265737300000000000000000000000000000000000000000000602082015250565b7f4552433732313a206f776e657220717565727920666f72206e6f6e657869737460008201527f656e7420746f6b656e0000000000000000000000000000000000000000000000602082015250565b7f4552433732313a206d696e7420746f20746865207a65726f2061646472657373600082015250565b7f4552433732313a20617070726f76656420717565727920666f72206e6f6e657860008201527f697374656e7420746f6b656e0000000000000000000000000000000000000000602082015250565b7f4552433732314d657461646174613a2055524920717565727920666f72206e6f60008201527f6e6578697374656e7420746f6b656e0000000000000000000000000000000000602082015250565b7f596f75206e65656420746f206861766520656e6f756768204574686572000000600082015250565b7f4552433732313a20617070726f76616c20746f2063757272656e74206f776e6560008201527f7200000000000000000000000000000000000000000000000000000000000000602082015250565b7f54686520537461722073686f756c6420626520757020666f722073616c650000600082015250565b7f4552433732313a207472616e736665722063616c6c6572206973206e6f74206f60008201527f776e6572206e6f7220617070726f766564000000000000000000000000000000602082015250565b61321781612b04565b811461322257600080fd5b50565b61322e81612b16565b811461323957600080fd5b50565b61324581612b22565b811461325057600080fd5b50565b61325c81612b6e565b811461326757600080fd5b5056fea26469706673582212204f31640d298c51b399587598ba97a556968f5a63e85dee65a6334e3a3c02f85c64736f6c63430008040033",
  "linkReferences": {},
  "deployedLinkReferences": {}
}